{
  "contractName": "SimpleStorage",
  "abi": [
    {
      "constant": true,
      "inputs": [
        {
          "internalType": "address",
          "name": "",
          "type": "address"
        }
      ],
      "name": "my_buyer_struct",
      "outputs": [
        {
          "internalType": "address",
          "name": "owner",
          "type": "address"
        },
        {
          "internalType": "string",
          "name": "name",
          "type": "string"
        },
        {
          "internalType": "string",
          "name": "password",
          "type": "string"
        }
      ],
      "payable": false,
      "stateMutability": "view",
      "type": "function"
    },
    {
      "constant": true,
      "inputs": [
        {
          "internalType": "address",
          "name": "",
          "type": "address"
        }
      ],
      "name": "my_seller_struct",
      "outputs": [
        {
          "internalType": "address",
          "name": "owner",
          "type": "address"
        },
        {
          "internalType": "string",
          "name": "name",
          "type": "string"
        },
        {
          "internalType": "string",
          "name": "password",
          "type": "string"
        }
      ],
      "payable": false,
      "stateMutability": "view",
      "type": "function"
    },
    {
      "constant": false,
      "inputs": [
        {
          "internalType": "address",
          "name": "owner",
          "type": "address"
        },
        {
          "internalType": "string",
          "name": "name",
          "type": "string"
        },
        {
          "internalType": "string",
          "name": "password",
          "type": "string"
        }
      ],
      "name": "signup_sellers",
      "outputs": [],
      "payable": false,
      "stateMutability": "nonpayable",
      "type": "function"
    },
    {
      "constant": false,
      "inputs": [
        {
          "internalType": "address",
          "name": "owner",
          "type": "address"
        },
        {
          "internalType": "string",
          "name": "name",
          "type": "string"
        },
        {
          "internalType": "string",
          "name": "password",
          "type": "string"
        }
      ],
      "name": "signup_buyer",
      "outputs": [],
      "payable": false,
      "stateMutability": "nonpayable",
      "type": "function"
    },
    {
      "constant": true,
      "inputs": [
        {
          "internalType": "address",
          "name": "ad",
          "type": "address"
        },
        {
          "internalType": "string",
          "name": "pwd",
          "type": "string"
        }
      ],
      "name": "seller_login_validate",
      "outputs": [
        {
          "internalType": "uint256",
          "name": "",
          "type": "uint256"
        }
      ],
      "payable": false,
      "stateMutability": "view",
      "type": "function"
    },
    {
      "constant": true,
      "inputs": [
        {
          "internalType": "address",
          "name": "ad",
          "type": "address"
        },
        {
          "internalType": "string",
          "name": "pwd",
          "type": "string"
        }
      ],
      "name": "buyer_login_validate",
      "outputs": [
        {
          "internalType": "uint256",
          "name": "",
          "type": "uint256"
        }
      ],
      "payable": false,
      "stateMutability": "view",
      "type": "function"
    },
    {
      "constant": false,
      "inputs": [
        {
          "internalType": "string",
          "name": "data",
          "type": "string"
        }
      ],
      "name": "update_products",
      "outputs": [],
      "payable": false,
      "stateMutability": "nonpayable",
      "type": "function"
    },
    {
      "constant": true,
      "inputs": [],
      "name": "view_products_buyers",
      "outputs": [
        {
          "internalType": "string",
          "name": "",
          "type": "string"
        }
      ],
      "payable": false,
      "stateMutability": "view",
      "type": "function"
    }
  ],
  "bytecode": "0x608060405234801561001057600080fd5b50611624806100206000396000f3fe608060405234801561001057600080fd5b50600436106100885760003560e01c80638ec552371161005b5780638ec552371461044a57806398300cb8146105a65780639f39556414610718578063ac8544141461088a57610088565b80632ed3921f1461008d57806336a5523a1461017c57806352b92771146101ff57806389e12ff11461035b575b600080fd5b610166600480360360408110156100a357600080fd5b81019080803573ffffffffffffffffffffffffffffffffffffffff169060200190929190803590602001906401000000008111156100e057600080fd5b8201836020820111156100f257600080fd5b8035906020019184600183028401116401000000008311171561011457600080fd5b91908080601f016020809104026020016040519081016040528093929190818152602001838380828437600081840152601f19601f820116905080830192505050505050509192919290505050610945565b6040518082815260200191505060405180910390f35b610184610a8e565b6040518080602001828103825283818151815260200191508051906020019080838360005b838110156101c45780820151818401526020810190506101a9565b50505050905090810190601f1680156101f15780820380516001836020036101000a031916815260200191505b509250505060405180910390f35b6102416004803603602081101561021557600080fd5b81019080803573ffffffffffffffffffffffffffffffffffffffff169060200190929190505050610b30565b604051808473ffffffffffffffffffffffffffffffffffffffff1673ffffffffffffffffffffffffffffffffffffffff1681526020018060200180602001838103835285818151815260200191508051906020019080838360005b838110156102b757808201518184015260208101905061029c565b50505050905090810190601f1680156102e45780820380516001836020036101000a031916815260200191505b50838103825284818151815260200191508051906020019080838360005b8381101561031d578082015181840152602081019050610302565b50505050905090810190601f16801561034a5780820380516001836020036101000a031916815260200191505b509550505050505060405180910390f35b6104346004803603604081101561037157600080fd5b81019080803573ffffffffffffffffffffffffffffffffffffffff169060200190929190803590602001906401000000008111156103ae57600080fd5b8201836020820111156103c057600080fd5b803590602001918460018302840111640100000000831117156103e257600080fd5b91908080601f016020809104026020016040519081016040528093929190818152602001838380828437600081840152601f19601f820116905080830192505050505050509192919290505050610caa565b6040518082815260200191505060405180910390f35b61048c6004803603602081101561046057600080fd5b81019080803573ffffffffffffffffffffffffffffffffffffffff169060200190929190505050610df3565b604051808473ffffffffffffffffffffffffffffffffffffffff1673ffffffffffffffffffffffffffffffffffffffff1681526020018060200180602001838103835285818151815260200191508051906020019080838360005b838110156105025780820151818401526020810190506104e7565b50505050905090810190601f16801561052f5780820380516001836020036101000a031916815260200191505b50838103825284818151815260200191508051906020019080838360005b8381101561056857808201518184015260208101905061054d565b50505050905090810190601f1680156105955780820380516001836020036101000a031916815260200191505b509550505050505060405180910390f35b610716600480360360608110156105bc57600080fd5b81019080803573ffffffffffffffffffffffffffffffffffffffff169060200190929190803590602001906401000000008111156105f957600080fd5b82018360208201111561060b57600080fd5b8035906020019184600183028401116401000000008311171561062d57600080fd5b91908080601f016020809104026020016040519081016040528093929190818152602001838380828437600081840152601f19601f8201169050808301925050505050505091929192908035906020019064010000000081111561069057600080fd5b8201836020820111156106a257600080fd5b803590602001918460018302840111640100000000831117156106c457600080fd5b91908080601f016020809104026020016040519081016040528093929190818152602001838380828437600081840152601f19601f820116905080830192505050505050509192919290505050610f6d565b005b6108886004803603606081101561072e57600080fd5b81019080803573ffffffffffffffffffffffffffffffffffffffff1690602001909291908035906020019064010000000081111561076b57600080fd5b82018360208201111561077d57600080fd5b8035906020019184600183028401116401000000008311171561079f57600080fd5b91908080601f016020809104026020016040519081016040528093929190818152602001838380828437600081840152601f19601f8201169050808301925050505050505091929192908035906020019064010000000081111561080257600080fd5b82018360208201111561081457600080fd5b8035906020019184600183028401116401000000008311171561083657600080fd5b91908080601f016020809104026020016040519081016040528093929190818152602001838380828437600081840152601f19601f8201169050808301925050505050505091929192905050506111ea565b005b610943600480360360208110156108a057600080fd5b81019080803590602001906401000000008111156108bd57600080fd5b8201836020820111156108cf57600080fd5b803590602001918460018302840111640100000000831117156108f157600080fd5b91908080601f016020809104026020016040519081016040528093929190818152602001838380828437600081840152601f19601f820116905080830192505050505050509192919290505050611467565b005b6000816040516020018082805190602001908083835b6020831061097e578051825260208201915060208101905060208303925061095b565b6001836020036101000a03801982511681845116808217855250505050505090500191505060405160208183030381529060405280519060200120600260008573ffffffffffffffffffffffffffffffffffffffff1673ffffffffffffffffffffffffffffffffffffffff1681526020019081526020016000206002016040516020018082805460018160011615610100020316600290048015610a595780601f10610a37576101008083540402835291820191610a59565b820191906000526020600020905b815481529060010190602001808311610a45575b5050915050604051602081830303815290604052805190602001201415610a835760019050610a88565b600090505b92915050565b606060008054600181600116156101000203166002900480601f016020809104026020016040519081016040528092919081815260200182805460018160011615610100020316600290048015610b265780601f10610afb57610100808354040283529160200191610b26565b820191906000526020600020905b815481529060010190602001808311610b0957829003601f168201915b5050505050905090565b60016020528060005260406000206000915090508060000160009054906101000a900473ffffffffffffffffffffffffffffffffffffffff1690806001018054600181600116156101000203166002900480601f016020809104026020016040519081016040528092919081815260200182805460018160011615610100020316600290048015610c025780601f10610bd757610100808354040283529160200191610c02565b820191906000526020600020905b815481529060010190602001808311610be557829003601f168201915b505050505090806002018054600181600116156101000203166002900480601f016020809104026020016040519081016040528092919081815260200182805460018160011615610100020316600290048015610ca05780601f10610c7557610100808354040283529160200191610ca0565b820191906000526020600020905b815481529060010190602001808311610c8357829003601f168201915b5050505050905083565b6000816040516020018082805190602001908083835b60208310610ce35780518252602082019150602081019050602083039250610cc0565b6001836020036101000a03801982511681845116808217855250505050505090500191505060405160208183030381529060405280519060200120600160008573ffffffffffffffffffffffffffffffffffffffff1673ffffffffffffffffffffffffffffffffffffffff1681526020019081526020016000206002016040516020018082805460018160011615610100020316600290048015610dbe5780601f10610d9c576101008083540402835291820191610dbe565b820191906000526020600020905b815481529060010190602001808311610daa575b5050915050604051602081830303815290604052805190602001201415610de85760019050610ded565b600090505b92915050565b60026020528060005260406000206000915090508060000160009054906101000a900473ffffffffffffffffffffffffffffffffffffffff1690806001018054600181600116156101000203166002900480601f016020809104026020016040519081016040528092919081815260200182805460018160011615610100020316600290048015610ec55780601f10610e9a57610100808354040283529160200191610ec5565b820191906000526020600020905b815481529060010190602001808311610ea857829003601f168201915b505050505090806002018054600181600116156101000203166002900480601f016020809104026020016040519081016040528092919081815260200182805460018160011615610100020316600290048015610f635780601f10610f3857610100808354040283529160200191610f63565b820191906000526020600020905b815481529060010190602001808311610f4657829003601f168201915b5050505050905083565b806040516020018082805190602001908083835b60208310610fa45780518252602082019150602081019050602083039250610f81565b6001836020036101000a03801982511681845116808217855250505050505090500191505060405160208183030381529060405280519060200120600160008573ffffffffffffffffffffffffffffffffffffffff1673ffffffffffffffffffffffffffffffffffffffff168152602001908152602001600020600201604051602001808280546001816001161561010002031660029004801561107f5780601f1061105d57610100808354040283529182019161107f565b820191906000526020600020905b81548152906001019060200180831161106b575b50509150506040516020818303038152906040528051906020012014156110f1576040517f08c379a00000000000000000000000000000000000000000000000000000000081526004018080602001828103825260248152602001806115cc6024913960400191505060405180910390fd5b60405180606001604052808473ffffffffffffffffffffffffffffffffffffffff16815260200183815260200182815250600160008573ffffffffffffffffffffffffffffffffffffffff1673ffffffffffffffffffffffffffffffffffffffff16815260200190815260200160002060008201518160000160006101000a81548173ffffffffffffffffffffffffffffffffffffffff021916908373ffffffffffffffffffffffffffffffffffffffff16021790555060208201518160010190805190602001906111c4929190611481565b5060408201518160020190805190602001906111e1929190611481565b50905050505050565b806040516020018082805190602001908083835b6020831061122157805182526020820191506020810190506020830392506111fe565b6001836020036101000a03801982511681845116808217855250505050505090500191505060405160208183030381529060405280519060200120600260008573ffffffffffffffffffffffffffffffffffffffff1673ffffffffffffffffffffffffffffffffffffffff16815260200190815260200160002060020160405160200180828054600181600116156101000203166002900480156112fc5780601f106112da5761010080835404028352918201916112fc565b820191906000526020600020905b8154815290600101906020018083116112e8575b505091505060405160208183030381529060405280519060200120141561136e576040517f08c379a00000000000000000000000000000000000000000000000000000000081526004018080602001828103825260258152602001806115a76025913960400191505060405180910390fd5b60405180606001604052808473ffffffffffffffffffffffffffffffffffffffff16815260200183815260200182815250600260008573ffffffffffffffffffffffffffffffffffffffff1673ffffffffffffffffffffffffffffffffffffffff16815260200190815260200160002060008201518160000160006101000a81548173ffffffffffffffffffffffffffffffffffffffff021916908373ffffffffffffffffffffffffffffffffffffffff1602179055506020820151816001019080519060200190611441929190611481565b50604082015181600201908051906020019061145e929190611481565b50905050505050565b806000908051906020019061147d929190611501565b5050565b828054600181600116156101000203166002900490600052602060002090601f016020900481019282601f106114c257805160ff19168380011785556114f0565b828001600101855582156114f0579182015b828111156114ef5782518255916020019190600101906114d4565b5b5090506114fd9190611581565b5090565b828054600181600116156101000203166002900490600052602060002090601f016020900481019282601f1061154257805160ff1916838001178555611570565b82800160010185558215611570579182015b8281111561156f578251825591602001919060010190611554565b5b50905061157d9190611581565b5090565b6115a391905b8082111561159f576000816000905550600101611587565b5090565b9056fe796f752061726520616c7265616479207369676e656420757020617320686f73706974616c796f752061726520616c7265616479207369676e65642075702061732070617469656e74a265627a7a723158207b3aa8f6afca9f5d46c23dd84110ce31ff0892bc726442fece9740e38ef9c05064736f6c634300050d0032",
  "source": "pragma solidity ^0.5.13;\n\ncontract SimpleStorage\n{\n\nstruct seller_info \n{\n\n    address owner;\n    string name;\n    string password; \n\n}\nstruct buyer_info\n{\n    address owner;\n    string name;\n    string password;\n}\n\nstring products;\n\n\nmapping(address => seller_info) public my_seller_struct;\nmapping(address => buyer_info) public my_buyer_struct;\n\nfunction signup_sellers (address owner,string memory name,string memory password) public \n\n{   \n    require (keccak256(abi.encodePacked(my_seller_struct[owner].password )) != keccak256(abi.encodePacked(password)),\"you are already signed up as patient\");\n    my_seller_struct[owner] = seller_info(owner,name,password);\n\n}\n\nfunction signup_buyer (address owner,string memory name,string memory password) public \n{   \n    require (keccak256(abi.encodePacked(my_buyer_struct[owner].password )) != keccak256(abi.encodePacked(password)),\"you are already signed up as hospital\");\n    my_buyer_struct[owner] = buyer_info(owner,name,password);\n}\n\nfunction seller_login_validate (address ad,string memory pwd) public view returns(uint)\n{\n    if (keccak256(abi.encodePacked(my_seller_struct[ad].password )) == keccak256(abi.encodePacked(pwd)))\n    {\n    return 1;\n    }\n    else\n    {\n        return 0;\n    }\n}\n\nfunction buyer_login_validate (address ad,string memory pwd) public view returns(uint)\n{\n    if (keccak256(abi.encodePacked(my_buyer_struct[ad].password )) == keccak256(abi.encodePacked(pwd)))\n    {\n    return 1;\n    }\n    else\n    {\n        return 0;\n    }\n}\n\n\nfunction update_products (string memory data) public //\"sellername,productname,buyer price,mcp price,buyer price 1,2,3,4,seller closing,buyer closing,#,repeates\"\n{\n    products = data;\n\n}\n\nfunction view_products_buyers () public view returns(string memory)\n{\n\n    return (products);  \n\n}\n}",
  "sourcePath": "C:/Users/rdhan/OneDrive/Documents/Blockchain/8th sem project/GRID stud/GRID stud/contracts/SimpleStorage.sol",
  "compiler": {
    "name": "solc",
    "version": "0.5.13+commit.5b0b510c.Emscripten.clang"
  },
  "schemaVersion": "3.0.20",
  "updatedAt": "2022-07-20T05:05:05.827Z",
  "networkType": "ethereum",
  "devdoc": {
    "methods": {}
  },
  "userdoc": {
    "methods": {}
  }
}